:100000000C9434000C9449000C9449000C94490061
:100010000C9449000C9449000C9449000C9449003C
:100020000C9449000C9449000C9449000C9449002C
:100030000C9449000C9449000C9449000C9449001C
:100040000C9449000C9449000C9449000C9449000C
:100050000C9449000C9449000C9449000C944900FC
:100060000C9449000C94490011241FBECFEFD8E036
:10007000DEBFCDBF11E0A0E0B1E0E8EAF1E002C0F0
:1000800005900D92A632B107D9F70E94CA000C94D0
:10009000D2000C9400001092C5008093C40088E147
:1000A0008093C10086E08093C20008959091C000C3
:1000B00095FFFCCF8093C60008950F931F93CF93B5
:1000C000DF93EC018C01060F111DC017D10721F041
:1000D00089910E945600F9CFDF91CF911F910F9126
:1000E00008958091C00087FFFCCF8091C6000895DD
:1000F0000F931F93CF93DF93EC018C01060F111D1B
:10010000C017D10721F00E9471008993F9CFDF91C8
:10011000CF911F910F910895CF93DF93CDB7DEB7A5
:100120002B970FB6F894DEBF0FBECDBF8BE0EBE18F
:10013000F1E0DE01119601900D928A95E1F76BE0F6
:10014000CE0101960E945D000E9471002B960FB6B1
:10015000F894DEBF0FBECDBFDF91CF910895FF921F
:100160000F931F93CF93DF93F82EC0E0D1E00CE103
:1001700011E0888184508F250E94560022960C172A
:100180001D07B9F78AE0DF91CF911F910F91FF9082
:100190000C94560087E60E944B000E948C000E943F
:0801A000AF00FBCFF894FFCF84
:1001A8004F5551505D62795D73546F577042435596
:1001B800717A3E3842454378773300456E746572EC
:0601C800206B65790A00BE
:00000001FF
